{
    "_format": "hh-sol-artifact-1",
    "contractName": "Transactions",
    "sourceName": "contracts/Transactions.sol",
    "abi": [
        {
            "anonymous": false,
            "inputs": [
                {
                    "indexed": false,
                    "internalType": "address",
                    "name": "from",
                    "type": "address"
                },
                {
                    "indexed": false,
                    "internalType": "address",
                    "name": "receiver",
                    "type": "address"
                },
                {
                    "indexed": false,
                    "internalType": "uint256",
                    "name": "amount",
                    "type": "uint256"
                },
                {
                    "indexed": false,
                    "internalType": "string",
                    "name": "message",
                    "type": "string"
                },
                {
                    "indexed": false,
                    "internalType": "uint256",
                    "name": "timestamp",
                    "type": "uint256"
                },
                {
                    "indexed": false,
                    "internalType": "string",
                    "name": "keyword",
                    "type": "string"
                }
            ],
            "name": "Transfer",
            "type": "event"
        },
        {
            "inputs": [
                {
                    "internalType": "address payable",
                    "name": "receiver",
                    "type": "address"
                },
                {
                    "internalType": "uint256",
                    "name": "amount",
                    "type": "uint256"
                },
                {
                    "internalType": "string",
                    "name": "message",
                    "type": "string"
                },
                {
                    "internalType": "string",
                    "name": "keyword",
                    "type": "string"
                }
            ],
            "name": "addToBlockchain",
            "outputs": [],
            "stateMutability": "nonpayable",
            "type": "function"
        },
        {
            "inputs": [],
            "name": "getAllTransactions",
            "outputs": [
                {
                    "components": [
                        {
                            "internalType": "address",
                            "name": "sender",
                            "type": "address"
                        },
                        {
                            "internalType": "address",
                            "name": "receiver",
                            "type": "address"
                        },
                        {
                            "internalType": "uint256",
                            "name": "amount",
                            "type": "uint256"
                        },
                        {
                            "internalType": "string",
                            "name": "message",
                            "type": "string"
                        },
                        {
                            "internalType": "uint256",
                            "name": "timestamp",
                            "type": "uint256"
                        },
                        {
                            "internalType": "string",
                            "name": "keyword",
                            "type": "string"
                        }
                    ],
                    "internalType": "struct Transactions.TransferStruct",
                    "name": "",
                    "type": "tuple"
                }
            ],
            "stateMutability": "view",
            "type": "function"
        },
        {
            "inputs": [],
            "name": "getTransactionsCount",
            "outputs": [
                {
                    "internalType": "uint256",
                    "name": "",
                    "type": "uint256"
                }
            ],
            "stateMutability": "view",
            "type": "function"
        }
    ],
    "bytecode": "0x608060405234801561001057600080fd5b506109e7806100206000396000f3fe608060405234801561001057600080fd5b50600436106100415760003560e01c806327506f5314610046578063578cb8f914610064578063cc2d7ead14610082575b600080fd5b61004e61009e565b60405161005b9190610506565b60405180910390f35b61006c6100b3565b6040516100799190610537565b60405180910390f35b61009c60048036038101906100979190610705565b6100bc565b005b6100a661027e565b6100ae61009e565b905090565b60008054905090565b60016000808282546100ce91906107d3565b9250508190555060016040518060c001604052803373ffffffffffffffffffffffffffffffffffffffff1681526020018673ffffffffffffffffffffffffffffffffffffffff16815260200185815260200184815260200142815260200183815250908060018154018082558091505060019003906000526020600020906006020160009091909190915060008201518160000160006101000a81548173ffffffffffffffffffffffffffffffffffffffff021916908373ffffffffffffffffffffffffffffffffffffffff16021790555060208201518160010160006101000a81548173ffffffffffffffffffffffffffffffffffffffff021916908373ffffffffffffffffffffffffffffffffffffffff16021790555060408201518160020155606082015181600301908051906020019061020d9291906102e0565b506080820151816004015560a08201518160050190805190602001906102349291906102e0565b5050507f416cfa4330a4565f45c2fd2dd4826a83a37443aba2ce6f79477c7355afac35fa338585854286604051610270969594939291906108e1565b60405180910390a150505050565b6040518060c00160405280600073ffffffffffffffffffffffffffffffffffffffff168152602001600073ffffffffffffffffffffffffffffffffffffffff168152602001600081526020016060815260200160008152602001606081525090565b8280546102ec9061097f565b90600052602060002090601f01602090048101928261030e5760008555610355565b82601f1061032757805160ff1916838001178555610355565b82800160010185558215610355579182015b82811115610354578251825591602001919060010190610339565b5b5090506103629190610366565b5090565b5b8082111561037f576000816000905550600101610367565b5090565b600073ffffffffffffffffffffffffffffffffffffffff82169050919050565b60006103ae82610383565b9050919050565b6103be816103a3565b82525050565b6000819050919050565b6103d7816103c4565b82525050565b600081519050919050565b600082825260208201905092915050565b60005b838110156104175780820151818401526020810190506103fc565b83811115610426576000848401525b50505050565b6000601f19601f8301169050919050565b6000610448826103dd565b61045281856103e8565b93506104628185602086016103f9565b61046b8161042c565b840191505092915050565b600060c08301600083015161048e60008601826103b5565b5060208301516104a160208601826103b5565b5060408301516104b460408601826103ce565b50606083015184820360608601526104cc828261043d565b91505060808301516104e160808601826103ce565b5060a083015184820360a08601526104f9828261043d565b9150508091505092915050565b600060208201905081810360008301526105208184610476565b905092915050565b610531816103c4565b82525050565b600060208201905061054c6000830184610528565b92915050565b6000604051905090565b600080fd5b600080fd5b600061057182610383565b9050919050565b61058181610566565b811461058c57600080fd5b50565b60008135905061059e81610578565b92915050565b6105ad816103c4565b81146105b857600080fd5b50565b6000813590506105ca816105a4565b92915050565b600080fd5b600080fd5b7f4e487b7100000000000000000000000000000000000000000000000000000000600052604160045260246000fd5b6106128261042c565b810181811067ffffffffffffffff82111715610631576106306105da565b5b80604052505050565b6000610644610552565b90506106508282610609565b919050565b600067ffffffffffffffff8211156106705761066f6105da565b5b6106798261042c565b9050602081019050919050565b82818337600083830152505050565b60006106a86106a384610655565b61063a565b9050828152602081018484840111156106c4576106c36105d5565b5b6106cf848285610686565b509392505050565b600082601f8301126106ec576106eb6105d0565b5b81356106fc848260208601610695565b91505092915050565b6000806000806080858703121561071f5761071e61055c565b5b600061072d8782880161058f565b945050602061073e878288016105bb565b935050604085013567ffffffffffffffff81111561075f5761075e610561565b5b61076b878288016106d7565b925050606085013567ffffffffffffffff81111561078c5761078b610561565b5b610798878288016106d7565b91505092959194509250565b7f4e487b7100000000000000000000000000000000000000000000000000000000600052601160045260246000fd5b60006107de826103c4565b91506107e9836103c4565b9250827fffffffffffffffffffffffffffffffffffffffffffffffffffffffffffffffff0382111561081e5761081d6107a4565b5b828201905092915050565b610832816103a3565b82525050565b6000819050919050565b600061085d61085861085384610383565b610838565b610383565b9050919050565b600061086f82610842565b9050919050565b600061088182610864565b9050919050565b61089181610876565b82525050565b600082825260208201905092915050565b60006108b3826103dd565b6108bd8185610897565b93506108cd8185602086016103f9565b6108d68161042c565b840191505092915050565b600060c0820190506108f66000830189610829565b6109036020830188610888565b6109106040830187610528565b818103606083015261092281866108a8565b90506109316080830185610528565b81810360a083015261094381846108a8565b9050979650505050505050565b7f4e487b7100000000000000000000000000000000000000000000000000000000600052602260045260246000fd5b6000600282049050600182168061099757607f821691505b602082108114156109ab576109aa610950565b5b5091905056fea26469706673582212208cb4f083fd2763c186a3db81e7563b2e198bfd53d4e88774b910c57b0581bab264736f6c63430008090033",
    "linkReferences": {},
    "deployedLinkReferences": {}
}